:1000000010C0189518951895189518951895189565
:100010001895189518951895189518951895189578
:1000200018958FED8DBFC8EBE0EA4E2EDD275D2ED3
:10003000A89584B7082E877F84BF88E1992781BD62
:1000400091BDEEE7F0E0A0E6B0E088278D93319710
:10005000E9F76624D19A7FEF7ABB7AEA7ABBD99A1C
:10006000E1E0F0E00AD08AE090E016D0D998E5E02F
:10007000F0E003D0F4CFF894FFCF88EE93E00CD0FB
:100080003197D9F708953197F1F70895689462F898
:100090000895E89462F80895EF93FF93EE27E82B14
:1000A000E92B31F0E8EEF3E03197F1F70197D1F762
:0600B000FF91EF9108959D
:00000001FF
