:1000000010C03DC018951895189518951895189515
:100010001895189518951895189518951895189578
:1000200018958FED8DBFC8EBE0EA4E2EDD275D2ED3
:10003000A89584B7082E877F84BF88E1992781BD62
:1000400091BDEEE7F0E0A0E6B0E088278D93319710
:10005000E9F766247EB572607EBD7FEF7ABB7BE0F8
:1000600077BB7FE078BB75B7726075BF7FB770688C
:100070007FBF7BB770647BBFFFCFF894FFCF0F9239
:100080001F922F923F924F925F927F92AF92BF92B8
:100090000F931F932F933F934F935F936F937F9390
:1000A0008F939F93AF93BF93CF93DF93EF93FF9380
:1000B0008FB78F93A1E68CB58C93A0E68DB58C930A
:1000C00070E07DBD70E07CBDA0E60D91112740E0A1
:1000D00051E04ED0A2E60D931C93A2E60D911C9127
:1000E000A1E64D915527040F151FA2E60D931C9311
:1000F000A0E68C918BBB8F918FBFFF91EF91DF9129
:10010000CF91BF91AF919F918F917F916F915F91AF
:100110004F913F912F911F910F91BF90AF907F9082
:100120005F904F903F902F901F900F90189504D0A4
:100130001FD000FC0CD008950024E89457FF02C0A3
:1001400009D0689400F80BD010F80124089502D06B
:1001500009D00895509540954F5F5F4F0895E894FA
:1001600017FF0895009510950F5F1F4F689408952D
:10017000752F642F55274427FF93F1E1889405C01C
:1001800010F4460F571F5695479517950795FA9502
:10019000B9F7FF9108953197F1F70895689462F8DF
:0801A0000895E89462F8089547
:00000001FF
