:1000000010C0189518951895189518951895189565
:100010001895189518951895189518951895189578
:1000200018958FED8DBFC8EBE0EA4E2EDD275D2ED3
:10003000A89584B7082E877F84BF88E1992781BD62
:1000400091BDEEE7F0E0A0E6B0E088278D93319710
:10005000E9F766247FEF7ABB7BE077BB7FE078BB74
:1000600075B7726075BF7FB770687FBF7BB770640C
:100070007BBF78E87BBB80E991E022D070EA7BBB54
:1000800080E991E01DD07FEF7BBB80E991E018D043
:1000900070EA7BBB80E991E013D078E87BBB80E914
:1000A00091E00ED070E47BBBE4CFF894FFCF3197A2
:1000B000F1F70895689462F80895E89462F8089555
:1000C000EF93FF93EE27E82BE92B31F0E8EEF3E016
:0E00D0003197F1F70197D1F7FF91EF91089565
:00000001FF
