:1000000010C055C0189518951895189518951895FD
:100010001895B1C0189518951895189518951895B4
:1000200018958FED8DBFC8EBE0EA4E2EDD275D2ED3
:10003000A89584B7082E877F84BF88E1992781BD62
:1000400091BDEEE7F0E0A0E6B0E088278D93319710
:10005000E9F766247EB572607EBD73B7716073BFC9
:1000600073B7726073BF79B7726079BF7FEF7ABB85
:100070007BE077BB7FE078BB75B7726075BF7FB7F9
:1000800070687FBF7BB770647BBF80E8809365003A
:1000900080E8809366008FEF8093670080E880930C
:1000A000680080E880936900FFCFF894FFCF0F923B
:1000B0001F922F923F924F925F927F92AF92BF9288
:1000C0000F931F932F933F934F935F936F937F9360
:1000D0008F939F93AF93BF93CF93DF93EF93FF9350
:1000E0008FB78F93A0E68CB58C93A1E68DB58C93DA
:1000F00070E07CBD70E07DBD00E011E0A1E64D91B7
:100100005527C1D0A2E60D931C93A1E60D911127AE
:10011000A0E64D915527040F151FA2E60D931C93E1
:10012000A2E60D911C9140E054E093D0A2E64D93DD
:100130005C93A2E68C9186BF81E0809364008F91EE
:100140008FBFFF91EF91DF91CF91BF91AF919F91C1
:100150008F917F916F915F914F913F912F911F915F
:100160000F91BF90AF907F905F904F903F902F90F6
:100170001F900F9018950F921F922F923F924F92BF
:100180005F927F92AF92BF920F931F932F933F93F3
:100190004F935F936F937F938F939F93AF93BF938F
:1001A000CF93DF93EF93FF938FB78F93009164000A
:1001B000063008F007C0A4E6AD90A4E6AA0D8C9125
:1001C0008BBB02C070E07BBBA4E68C918F5F8C93ED
:1001D0008F918FBFFF91EF91DF91CF91BF91AF9141
:1001E0009F918F917F916F915F914F913F912F914F
:1001F0001F910F91BF90AF907F905F904F903F9075
:100200002F901F900F90189508D03DD000FC10D073
:10021000089503D01ED001F8F9CF0024E89457FFC9
:1002200002C009D0689400F80BD010F8012408959A
:1002300002D009D00895509540954F5F5F4F0895C3
:10024000E89417FF0895009510950F5F1F4F68946D
:100250000895352F242FE894452B11F468940895C0
:10026000512F402F0027112780E1440F551F001FF9
:10027000111F021B130B416018F4020F131F4E7F56
:100280008A9599F70895752F642F55274427FF9372
:10029000F1E1889405C010F4460F571F5695479515
:1002A00017950795FA95B9F7FF9108953197F1F7EA
:0E02B0000895689462F80895E89462F808953D
:00000001FF
