:1000000010C049C018951895189518951895189509
:100010001895189518951895189518951895189578
:1000200018958FED8DBFC8EBE0EA4E2EDD275D2ED3
:10003000A89584B7082E877F84BF88E1992781BD62
:1000400091BDEEE7F0E0A0E6B0E088278D93319710
:10005000E9F766247FEF7ABB7BE077BB7FE078BB74
:1000600075B7726075BF7FB770687FBF7BB770640C
:100070007BBF80E88093600080E8809361008FEF11
:100080008093620080E88093630080E8809364003E
:10009000FFCFF894FFCF0F921F922F923F924F9273
:1000A0005F927F92AF92BF920F931F932F933F93D4
:1000B0004F935F936F937F938F939F93AF93BF9370
:1000C000CF93DF93EF93FF938FB78F93A0E68C913D
:1000D0008BBBEF93FF93ECE8F1E048D0FF91EF91F9
:1000E000A1E68C918BBBEF93FF93ECE8F1E03ED05F
:1000F000FF91EF91A2E68C918BBBEF93FF93ECE81D
:10010000F1E034D0FF91EF91A3E68C918BBBEF939C
:10011000FF93ECE8F1E02AD0FF91EF91A4E68C91F7
:100120008BBBEF93FF93ECE8F1E020D0FF91EF91D0
:1001300070E07BBB8F918FBFFF91EF91DF91CF91EB
:10014000BF91AF919F918F917F916F915F914F91EF
:100150003F912F911F910F91BF90AF907F905F9033
:100160004F903F902F901F900F9018953197F1F777
:0E0170000895689462F80895E89462F808957E
:00000001FF
