:100000000AC026C018951895189518951895189532
:100010001895189518958FED8DBFC8EBE0EA4E2E18
:10002000DD275D2EEEE7F0E0A0E6B0E088278D93B7
:100030003197E9F766247BE077BB7FE078BB75B743
:10004000726075BF7FB770687FBFFFCFF894FFCF36
:100050000F921F922F923F924F925F927F92AF9298
:10006000BF920F931F932F933F934F935F936F9381
:100070007F938F939F93AF93BF93CF93DF93EF9330
:10008000FF938FB78F93A0E68C918F5F8C938F91A6
:100090008FBFFF91EF91DF91CF91BF91AF919F9172
:1000A0008F917F916F915F914F913F912F911F9110
:1000B0000F91BF90AF907F905F904F903F902F90A7
:1000C0001F900F9018953197F1F70895689462F892
:0800D0000895E89462F8089518
:00000001FF
